{
  "contractName": "WhiteList",
  "abi": [
    {
      "constant": true,
      "inputs": [
        {
          "internalType": "uint256",
          "name": "",
          "type": "uint256"
        }
      ],
      "name": "whitelist",
      "outputs": [
        {
          "internalType": "address",
          "name": "",
          "type": "address"
        }
      ],
      "payable": false,
      "stateMutability": "view",
      "type": "function"
    },
    {
      "constant": false,
      "inputs": [],
      "name": "AddToWhitelist",
      "outputs": [],
      "payable": false,
      "stateMutability": "nonpayable",
      "type": "function"
    },
    {
      "constant": true,
      "inputs": [],
      "name": "InWhiteList",
      "outputs": [
        {
          "internalType": "bool",
          "name": "",
          "type": "bool"
        }
      ],
      "payable": false,
      "stateMutability": "view",
      "type": "function"
    }
  ],
  "bytecode": "0x608060405234801561001057600080fd5b50610258806100206000396000f3fe608060405234801561001057600080fd5b50600436106100415760003560e01c80635c5b6f8f146100465780637ebd1b3014610068578063ddd2ee1a146100d6575b600080fd5b61004e6100e0565b604051808215151515815260200191505060405180910390f35b6100946004803603602081101561007e57600080fd5b810190808035906020019092919050505061017f565b604051808273ffffffffffffffffffffffffffffffffffffffff1673ffffffffffffffffffffffffffffffffffffffff16815260200191505060405180910390f35b6100de6101bb565b005b6000806000905060008090505b600080549050811015610177576000818154811061010757fe5b9060005260206000200160009054906101000a900473ffffffffffffffffffffffffffffffffffffffff1673ffffffffffffffffffffffffffffffffffffffff163373ffffffffffffffffffffffffffffffffffffffff16141561016a57600191505b80806001019150506100ed565b508091505090565b6000818154811061018c57fe5b906000526020600020016000915054906101000a900473ffffffffffffffffffffffffffffffffffffffff1681565b60003390806001815401808255809150509060018203906000526020600020016000909192909190916101000a81548173ffffffffffffffffffffffffffffffffffffffff021916908373ffffffffffffffffffffffffffffffffffffffff1602179055505056fea265627a7a72315820ec413215ed20e5f9ca276d160d1bbdfe7d2cbc3d33f547927d8bab4eed89a2f364736f6c63430005100032",
  "source": "pragma solidity >=0.4.21 <0.7.0;\n\n//import \"./GOLD.sol\"\n\ncontract WhiteList{\n\n  address[] public whitelist;\n\nfunction AddToWhitelist() public {\n    whitelist.push(msg.sender);\n}\n\nfunction InWhiteList() public view returns(bool){\n    bool presence = false;\n    for(uint i = 0; i < whitelist.length; i++)\n    {\n        if(msg.sender == whitelist[i])\n        {\n            presence = true;\n        }\n    }\n    return presence;\n}\n}",
  "sourcePath": "C:\\Users\\mattd\\BC5\\contracts\\WhiteList.sol",
  "compiler": {
    "name": "solc",
    "version": "0.5.16+commit.9c3226ce.Emscripten.clang"
  },
  "schemaVersion": "3.0.23",
  "updatedAt": "2020-03-04T18:52:54.354Z",
  "devdoc": {
    "methods": {}
  },
  "userdoc": {
    "methods": {}
  }
}